{
  "_format": "hh-sol-artifact-1",
  "contractName": "AgriTrace",
  "sourceName": "contracts/AgriTrace.sol",
  "abi": [
    {
      "inputs": [],
      "stateMutability": "nonpayable",
      "type": "constructor"
    },
    {
      "inputs": [],
      "name": "AccessControlBadConfirmation",
      "type": "error"
    },
    {
      "inputs": [
        {
          "internalType": "address",
          "name": "account",
          "type": "address"
        },
        {
          "internalType": "bytes32",
          "name": "neededRole",
          "type": "bytes32"
        }
      ],
      "name": "AccessControlUnauthorizedAccount",
      "type": "error"
    },
    {
      "anonymous": false,
      "inputs": [
        {
          "indexed": false,
          "internalType": "string",
          "name": "batchId",
          "type": "string"
        },
        {
          "indexed": false,
          "internalType": "address",
          "name": "producer",
          "type": "address"
        }
      ],
      "name": "BatchCreated",
      "type": "event"
    },
    {
      "anonymous": false,
      "inputs": [
        {
          "indexed": false,
          "internalType": "string",
          "name": "batchId",
          "type": "string"
        },
        {
          "indexed": false,
          "internalType": "uint256",
          "name": "priceWei",
          "type": "uint256"
        }
      ],
      "name": "PricePosted",
      "type": "event"
    },
    {
      "anonymous": false,
      "inputs": [
        {
          "indexed": false,
          "internalType": "string",
          "name": "batchId",
          "type": "string"
        },
        {
          "indexed": false,
          "internalType": "address",
          "name": "inspector",
          "type": "address"
        },
        {
          "indexed": false,
          "internalType": "bool",
          "name": "passed",
          "type": "bool"
        }
      ],
      "name": "QualityRecorded",
      "type": "event"
    },
    {
      "anonymous": false,
      "inputs": [
        {
          "indexed": true,
          "internalType": "bytes32",
          "name": "role",
          "type": "bytes32"
        },
        {
          "indexed": true,
          "internalType": "bytes32",
          "name": "previousAdminRole",
          "type": "bytes32"
        },
        {
          "indexed": true,
          "internalType": "bytes32",
          "name": "newAdminRole",
          "type": "bytes32"
        }
      ],
      "name": "RoleAdminChanged",
      "type": "event"
    },
    {
      "anonymous": false,
      "inputs": [
        {
          "indexed": true,
          "internalType": "bytes32",
          "name": "role",
          "type": "bytes32"
        },
        {
          "indexed": true,
          "internalType": "address",
          "name": "account",
          "type": "address"
        },
        {
          "indexed": true,
          "internalType": "address",
          "name": "sender",
          "type": "address"
        }
      ],
      "name": "RoleGranted",
      "type": "event"
    },
    {
      "anonymous": false,
      "inputs": [
        {
          "indexed": true,
          "internalType": "bytes32",
          "name": "role",
          "type": "bytes32"
        },
        {
          "indexed": true,
          "internalType": "address",
          "name": "account",
          "type": "address"
        },
        {
          "indexed": true,
          "internalType": "address",
          "name": "sender",
          "type": "address"
        }
      ],
      "name": "RoleRevoked",
      "type": "event"
    },
    {
      "anonymous": false,
      "inputs": [
        {
          "indexed": false,
          "internalType": "string",
          "name": "batchId",
          "type": "string"
        },
        {
          "indexed": false,
          "internalType": "address",
          "name": "buyer",
          "type": "address"
        },
        {
          "indexed": false,
          "internalType": "uint256",
          "name": "priceWei",
          "type": "uint256"
        }
      ],
      "name": "Sold",
      "type": "event"
    },
    {
      "anonymous": false,
      "inputs": [
        {
          "indexed": false,
          "internalType": "string",
          "name": "batchId",
          "type": "string"
        },
        {
          "indexed": false,
          "internalType": "address",
          "name": "from",
          "type": "address"
        },
        {
          "indexed": false,
          "internalType": "address",
          "name": "to",
          "type": "address"
        }
      ],
      "name": "TransferRecorded",
      "type": "event"
    },
    {
      "inputs": [],
      "name": "DEFAULT_ADMIN_ROLE",
      "outputs": [
        {
          "internalType": "bytes32",
          "name": "",
          "type": "bytes32"
        }
      ],
      "stateMutability": "view",
      "type": "function"
    },
    {
      "inputs": [],
      "name": "DISTRIBUTOR_ROLE",
      "outputs": [
        {
          "internalType": "bytes32",
          "name": "",
          "type": "bytes32"
        }
      ],
      "stateMutability": "view",
      "type": "function"
    },
    {
      "inputs": [],
      "name": "FARMER_ROLE",
      "outputs": [
        {
          "internalType": "bytes32",
          "name": "",
          "type": "bytes32"
        }
      ],
      "stateMutability": "view",
      "type": "function"
    },
    {
      "inputs": [],
      "name": "INSPECTOR_ROLE",
      "outputs": [
        {
          "internalType": "bytes32",
          "name": "",
          "type": "bytes32"
        }
      ],
      "stateMutability": "view",
      "type": "function"
    },
    {
      "inputs": [],
      "name": "RETAILER_ROLE",
      "outputs": [
        {
          "internalType": "bytes32",
          "name": "",
          "type": "bytes32"
        }
      ],
      "stateMutability": "view",
      "type": "function"
    },
    {
      "inputs": [
        {
          "internalType": "string",
          "name": "batchId",
          "type": "string"
        },
        {
          "internalType": "uint256",
          "name": "priceIndex",
          "type": "uint256"
        }
      ],
      "name": "acceptPriceAndBuy",
      "outputs": [],
      "stateMutability": "payable",
      "type": "function"
    },
    {
      "inputs": [
        {
          "internalType": "string",
          "name": "batchId",
          "type": "string"
        },
        {
          "internalType": "string",
          "name": "originGeo",
          "type": "string"
        },
        {
          "internalType": "string",
          "name": "productType",
          "type": "string"
        },
        {
          "internalType": "uint256",
          "name": "quantity",
          "type": "uint256"
        },
        {
          "internalType": "string",
          "name": "metadataCID",
          "type": "string"
        }
      ],
      "name": "createBatch",
      "outputs": [],
      "stateMutability": "nonpayable",
      "type": "function"
    },
    {
      "inputs": [
        {
          "internalType": "string",
          "name": "",
          "type": "string"
        }
      ],
      "name": "exists",
      "outputs": [
        {
          "internalType": "bool",
          "name": "",
          "type": "bool"
        }
      ],
      "stateMutability": "view",
      "type": "function"
    },
    {
      "inputs": [
        {
          "internalType": "string",
          "name": "batchId",
          "type": "string"
        }
      ],
      "name": "getBatch",
      "outputs": [
        {
          "internalType": "string",
          "name": "",
          "type": "string"
        },
        {
          "internalType": "address",
          "name": "",
          "type": "address"
        },
        {
          "internalType": "string",
          "name": "",
          "type": "string"
        },
        {
          "internalType": "uint256",
          "name": "",
          "type": "uint256"
        },
        {
          "internalType": "uint8",
          "name": "",
          "type": "uint8"
        },
        {
          "internalType": "string",
          "name": "",
          "type": "string"
        },
        {
          "internalType": "uint256",
          "name": "",
          "type": "uint256"
        }
      ],
      "stateMutability": "view",
      "type": "function"
    },
    {
      "inputs": [
        {
          "internalType": "string",
          "name": "batchId",
          "type": "string"
        }
      ],
      "name": "getPrices",
      "outputs": [
        {
          "components": [
            {
              "internalType": "address",
              "name": "setter",
              "type": "address"
            },
            {
              "internalType": "uint256",
              "name": "priceWei",
              "type": "uint256"
            },
            {
              "internalType": "uint256",
              "name": "timestamp",
              "type": "uint256"
            },
            {
              "internalType": "string",
              "name": "noteCID",
              "type": "string"
            }
          ],
          "internalType": "struct AgriTrace.PriceRecord[]",
          "name": "",
          "type": "tuple[]"
        }
      ],
      "stateMutability": "view",
      "type": "function"
    },
    {
      "inputs": [
        {
          "internalType": "string",
          "name": "batchId",
          "type": "string"
        }
      ],
      "name": "getQualityEvents",
      "outputs": [
        {
          "components": [
            {
              "internalType": "address",
              "name": "inspector",
              "type": "address"
            },
            {
              "internalType": "uint256",
              "name": "timestamp",
              "type": "uint256"
            },
            {
              "internalType": "string",
              "name": "reportCID",
              "type": "string"
            },
            {
              "internalType": "bool",
              "name": "passed",
              "type": "bool"
            },
            {
              "internalType": "string",
              "name": "notes",
              "type": "string"
            }
          ],
          "internalType": "struct AgriTrace.QualityEvent[]",
          "name": "",
          "type": "tuple[]"
        }
      ],
      "stateMutability": "view",
      "type": "function"
    },
    {
      "inputs": [
        {
          "internalType": "bytes32",
          "name": "role",
          "type": "bytes32"
        }
      ],
      "name": "getRoleAdmin",
      "outputs": [
        {
          "internalType": "bytes32",
          "name": "",
          "type": "bytes32"
        }
      ],
      "stateMutability": "view",
      "type": "function"
    },
    {
      "inputs": [
        {
          "internalType": "string",
          "name": "batchId",
          "type": "string"
        }
      ],
      "name": "getTransfers",
      "outputs": [
        {
          "components": [
            {
              "internalType": "address",
              "name": "from",
              "type": "address"
            },
            {
              "internalType": "address",
              "name": "to",
              "type": "address"
            },
            {
              "internalType": "uint256",
              "name": "timestamp",
              "type": "uint256"
            },
            {
              "internalType": "string",
              "name": "noteCID",
              "type": "string"
            }
          ],
          "internalType": "struct AgriTrace.Transfer[]",
          "name": "",
          "type": "tuple[]"
        }
      ],
      "stateMutability": "view",
      "type": "function"
    },
    {
      "inputs": [
        {
          "internalType": "bytes32",
          "name": "role",
          "type": "bytes32"
        },
        {
          "internalType": "address",
          "name": "account",
          "type": "address"
        }
      ],
      "name": "grantRole",
      "outputs": [],
      "stateMutability": "nonpayable",
      "type": "function"
    },
    {
      "inputs": [
        {
          "internalType": "bytes32",
          "name": "role",
          "type": "bytes32"
        },
        {
          "internalType": "address",
          "name": "account",
          "type": "address"
        }
      ],
      "name": "hasRole",
      "outputs": [
        {
          "internalType": "bool",
          "name": "",
          "type": "bool"
        }
      ],
      "stateMutability": "view",
      "type": "function"
    },
    {
      "inputs": [
        {
          "internalType": "string",
          "name": "",
          "type": "string"
        }
      ],
      "name": "pendingPayments",
      "outputs": [
        {
          "internalType": "uint256",
          "name": "",
          "type": "uint256"
        }
      ],
      "stateMutability": "view",
      "type": "function"
    },
    {
      "inputs": [
        {
          "internalType": "string",
          "name": "batchId",
          "type": "string"
        },
        {
          "internalType": "uint256",
          "name": "priceWei",
          "type": "uint256"
        },
        {
          "internalType": "string",
          "name": "noteCID",
          "type": "string"
        }
      ],
      "name": "postPrice",
      "outputs": [],
      "stateMutability": "nonpayable",
      "type": "function"
    },
    {
      "inputs": [
        {
          "internalType": "string",
          "name": "batchId",
          "type": "string"
        }
      ],
      "name": "recordArrival",
      "outputs": [],
      "stateMutability": "nonpayable",
      "type": "function"
    },
    {
      "inputs": [
        {
          "internalType": "string",
          "name": "batchId",
          "type": "string"
        },
        {
          "internalType": "bool",
          "name": "passed",
          "type": "bool"
        },
        {
          "internalType": "string",
          "name": "reportCID",
          "type": "string"
        },
        {
          "internalType": "string",
          "name": "notes",
          "type": "string"
        }
      ],
      "name": "recordQualityEvent",
      "outputs": [],
      "stateMutability": "nonpayable",
      "type": "function"
    },
    {
      "inputs": [
        {
          "internalType": "string",
          "name": "batchId",
          "type": "string"
        },
        {
          "internalType": "address",
          "name": "to",
          "type": "address"
        },
        {
          "internalType": "string",
          "name": "noteCID",
          "type": "string"
        }
      ],
      "name": "recordTransfer",
      "outputs": [],
      "stateMutability": "payable",
      "type": "function"
    },
    {
      "inputs": [
        {
          "internalType": "bytes32",
          "name": "role",
          "type": "bytes32"
        },
        {
          "internalType": "address",
          "name": "callerConfirmation",
          "type": "address"
        }
      ],
      "name": "renounceRole",
      "outputs": [],
      "stateMutability": "nonpayable",
      "type": "function"
    },
    {
      "inputs": [
        {
          "internalType": "bytes32",
          "name": "role",
          "type": "bytes32"
        },
        {
          "internalType": "address",
          "name": "account",
          "type": "address"
        }
      ],
      "name": "revokeRole",
      "outputs": [],
      "stateMutability": "nonpayable",
      "type": "function"
    },
    {
      "inputs": [
        {
          "internalType": "bytes4",
          "name": "interfaceId",
          "type": "bytes4"
        }
      ],
      "name": "supportsInterface",
      "outputs": [
        {
          "internalType": "bool",
          "name": "",
          "type": "bool"
        }
      ],
      "stateMutability": "view",
      "type": "function"
    }
  ],
  "bytecode": "0x60806040523480156200001157600080fd5b50620000276000801b336200002e60201b60201c565b50620001a3565b60006200004283836200013160201b60201c565b6200012657600160008085815260200190815260200160002060000160008473ffffffffffffffffffffffffffffffffffffffff1673ffffffffffffffffffffffffffffffffffffffff16815260200190815260200160002060006101000a81548160ff021916908315150217905550620000c26200019b60201b60201c565b73ffffffffffffffffffffffffffffffffffffffff168273ffffffffffffffffffffffffffffffffffffffff16847f2f8788117e7eff1d82e926ec794901d17c78024a50270940304540a733656f0d60405160405180910390a4600190506200012b565b600090505b92915050565b600080600084815260200190815260200160002060000160008373ffffffffffffffffffffffffffffffffffffffff1673ffffffffffffffffffffffffffffffffffffffff16815260200190815260200160002060009054906101000a900460ff16905092915050565b600033905090565b613f1a80620001b36000396000f3fe6080604052600436106101405760003560e01c806391d14854116100b6578063d547741f1161006f578063d547741f14610488578063d8c0a383146104b1578063e3a3c522146104da578063f0bd87cc14610505578063f394397014610530578063f9ca42741461055b57610140565b806391d148541461036157806392126d4a1461039e578063a217fddf146103c7578063a4c9925f146103f2578063b49bd1991461040e578063c4d6ac981461044b57610140565b8063261a323e11610108578063261a323e146102505780632f2ff15d1461028d57806336568abe146102b65780633a560d2d146102df578063467bdf48146103085780637f7656261461034557610140565b806301ffc9a714610145578063063c71c9146101825780631b0f6e38146101bf5780632115e7bf146101e8578063248a9ca314610213575b600080fd5b34801561015157600080fd5b5061016c6004803603810190610167919061254e565b61059e565b6040516101799190612596565b60405180910390f35b34801561018e57600080fd5b506101a960048036038101906101a49190612616565b610618565b6040516101b6919061289b565b60405180910390f35b3480156101cb57600080fd5b506101e660048036038101906101e191906128e9565b61083a565b005b3480156101f457600080fd5b506101fd610a79565b60405161020a9190612997565b60405180910390f35b34801561021f57600080fd5b5061023a600480360381019061023591906129de565b610a9d565b6040516102479190612997565b60405180910390f35b34801561025c57600080fd5b5061027760048036038101906102729190612b3b565b610abc565b6040516102849190612596565b60405180910390f35b34801561029957600080fd5b506102b460048036038101906102af9190612bb0565b610af2565b005b3480156102c257600080fd5b506102dd60048036038101906102d89190612bb0565b610b14565b005b3480156102eb57600080fd5b5061030660048036038101906103019190612616565b610b8f565b005b34801561031457600080fd5b5061032f600480360381019061032a9190612616565b610d59565b60405161033c9190612d15565b60405180910390f35b61035f600480360381019061035a9190612d37565b610ed8565b005b34801561036d57600080fd5b5061038860048036038101906103839190612bb0565b611324565b6040516103959190612596565b60405180910390f35b3480156103aa57600080fd5b506103c560048036038101906103c09190612dc3565b61138e565b005b3480156103d357600080fd5b506103dc61168a565b6040516103e99190612997565b60405180910390f35b61040c60048036038101906104079190612e8c565b611691565b005b34801561041a57600080fd5b5061043560048036038101906104309190612b3b565b611b44565b6040516104429190612f30565b60405180910390f35b34801561045757600080fd5b50610472600480360381019061046d9190612616565b611b72565b60405161047f9190613070565b60405180910390f35b34801561049457600080fd5b506104af60048036038101906104aa9190612bb0565b611d3d565b005b3480156104bd57600080fd5b506104d860048036038101906104d39190613092565b611d5f565b005b3480156104e657600080fd5b506104ef611f6e565b6040516104fc9190612997565b60405180910390f35b34801561051157600080fd5b5061051a611f92565b6040516105279190612997565b60405180910390f35b34801561053c57600080fd5b50610545611fb6565b6040516105529190612997565b60405180910390f35b34801561056757600080fd5b50610582600480360381019061057d9190612616565b611fda565b6040516105959796959493929190613203565b60405180910390f35b60007f7965db0b000000000000000000000000000000000000000000000000000000007bffffffffffffffffffffffffffffffffffffffffffffffffffffffff1916827bffffffffffffffffffffffffffffffffffffffffffffffffffffffff19161480610611575061061082612228565b5b9050919050565b60606002838360405161062c9291906132b7565b9081526020016040518091039020600901805480602002602001604051908101604052809291908181526020016000905b8282101561082e57838290600052602060002090600502016040518060a00160405290816000820160009054906101000a900473ffffffffffffffffffffffffffffffffffffffff1673ffffffffffffffffffffffffffffffffffffffff1673ffffffffffffffffffffffffffffffffffffffff168152602001600182015481526020016002820180546106f0906132ff565b80601f016020809104026020016040519081016040528092919081815260200182805461071c906132ff565b80156107695780601f1061073e57610100808354040283529160200191610769565b820191906000526020600020905b81548152906001019060200180831161074c57829003601f168201915b505050505081526020016003820160009054906101000a900460ff1615151515815260200160048201805461079d906132ff565b80601f01602080910402602001604051908101604052809291908181526020018280546107c9906132ff565b80156108165780601f106107eb57610100808354040283529160200191610816565b820191906000526020600020905b8154815290600101906020018083116107f957829003601f168201915b5050505050815250508152602001906001019061065d565b50505050905092915050565b7ffbd454f36a7e1a388bd6fc3ab10d434aa4578f811acbbcf33afb1c697486313c61086481612292565b600386866040516108769291906132b7565b908152602001604051809103902060009054906101000a900460ff166108d1576040517f08c379a00000000000000000000000000000000000000000000000000000000081526004016108c89061337c565b60405180910390fd5b6000600287876040516108e59291906132b7565b9081526020016040518091039020905080600a0160405180608001604052803373ffffffffffffffffffffffffffffffffffffffff16815260200187815260200142815260200186868080601f016020809104026020016040519081016040528093929190818152602001838380828437600081840152601f19601f82011690508083019250505050505050815250908060018154018082558091505060019003906000526020600020906004020160009091909190915060008201518160000160006101000a81548173ffffffffffffffffffffffffffffffffffffffff021916908373ffffffffffffffffffffffffffffffffffffffff16021790555060208201518160010155604082015181600201556060820151816003019081610a0d9190613548565b5050508460018888604051610a239291906132b7565b9081526020016040518091039020819055507f5a20cbb1bb9dd5125741127d5375284f08b1b6eeb62a1eb07095367a9c1a496f878787604051610a6893929190613647565b60405180910390a150505050505050565b7f2a5f906c256a5d799494fcd066e1f6c077689de1cdb65052a1624de4bace99bf81565b6000806000838152602001908152602001600020600101549050919050565b6003818051602081018201805184825260208301602085012081835280955050505050506000915054906101000a900460ff1681565b610afb82610a9d565b610b0481612292565b610b0e83836122a6565b50505050565b610b1c612397565b73ffffffffffffffffffffffffffffffffffffffff168173ffffffffffffffffffffffffffffffffffffffff1614610b80576040517f6697b23200000000000000000000000000000000000000000000000000000000815260040160405180910390fd5b610b8a828261239f565b505050565b60038282604051610ba19291906132b7565b908152602001604051809103902060009054906101000a900460ff16610bfc576040517f08c379a0000000000000000000000000000000000000000000000000000000008152600401610bf3906136eb565b60405180910390fd5b600060028383604051610c109291906132b7565b90815260200160405180910390209050600080826008018054905014610c90578160080160018360080180549050610c48919061373a565b81548110610c5957610c5861376e565b5b906000526020600020906004020160010160009054906101000a900473ffffffffffffffffffffffffffffffffffffffff16610cb6565b8160010160009054906101000a900473ffffffffffffffffffffffffffffffffffffffff165b90508073ffffffffffffffffffffffffffffffffffffffff163373ffffffffffffffffffffffffffffffffffffffff1614610d26576040517f08c379a0000000000000000000000000000000000000000000000000000000008152600401610d1d9061380f565b60405180910390fd5b60038260040160006101000a81548160ff02191690836006811115610d4e57610d4d61382f565b5b021790555050505050565b606060028383604051610d6d9291906132b7565b9081526020016040518091039020600a01805480602002602001604051908101604052809291908181526020016000905b82821015610ecc57838290600052602060002090600402016040518060800160405290816000820160009054906101000a900473ffffffffffffffffffffffffffffffffffffffff1673ffffffffffffffffffffffffffffffffffffffff1673ffffffffffffffffffffffffffffffffffffffff1681526020016001820154815260200160028201548152602001600382018054610e3b906132ff565b80601f0160208091040260200160405190810160405280929190818152602001828054610e67906132ff565b8015610eb45780601f10610e8957610100808354040283529160200191610eb4565b820191906000526020600020905b815481529060010190602001808311610e9757829003601f168201915b50505050508152505081526020019060010190610d9e565b50505050905092915050565b60038383604051610eea9291906132b7565b908152602001604051809103902060009054906101000a900460ff16610f45576040517f08c379a0000000000000000000000000000000000000000000000000000000008152600401610f3c906138d0565b60405180910390fd5b600060028484604051610f599291906132b7565b9081526020016040518091039020905080600a01805490508210610fb2576040517f08c379a0000000000000000000000000000000000000000000000000000000008152600401610fa990613962565b60405180910390fd5b600081600a018381548110610fca57610fc961376e565b5b90600052602060002090600402016040518060800160405290816000820160009054906101000a900473ffffffffffffffffffffffffffffffffffffffff1673ffffffffffffffffffffffffffffffffffffffff1673ffffffffffffffffffffffffffffffffffffffff168152602001600182015481526020016002820154815260200160038201805461105d906132ff565b80601f0160208091040260200160405190810160405280929190818152602001828054611089906132ff565b80156110d65780601f106110ab576101008083540402835291602001916110d6565b820191906000526020600020905b8154815290600101906020018083116110b957829003601f168201915b505050505081525050905080602001513414611127576040517f08c379a000000000000000000000000000000000000000000000000000000000815260040161111e906139f4565b60405180910390fd5b806000015173ffffffffffffffffffffffffffffffffffffffff166108fc349081150290604051600060405180830381858888f19350505050158015611171573d6000803e3d6000fd5b50816008016040518060800160405280836000015173ffffffffffffffffffffffffffffffffffffffff1681526020013373ffffffffffffffffffffffffffffffffffffffff16815260200142815260200160405180602001604052806000815250815250908060018154018082558091505060019003906000526020600020906004020160009091909190915060008201518160000160006101000a81548173ffffffffffffffffffffffffffffffffffffffff021916908373ffffffffffffffffffffffffffffffffffffffff16021790555060208201518160010160006101000a81548173ffffffffffffffffffffffffffffffffffffffff021916908373ffffffffffffffffffffffffffffffffffffffff1602179055506040820151816002015560608201518160030190816112ac9190613548565b50505060058260040160006101000a81548160ff021916908360068111156112d7576112d661382f565b5b02179055507f363f8de01db005e912a815780d96153c1f6b7df318fad8129326e0d7a0f8359e85853384602001516040516113159493929190613a14565b60405180910390a15050505050565b600080600084815260200190815260200160002060000160008373ffffffffffffffffffffffffffffffffffffffff1673ffffffffffffffffffffffffffffffffffffffff16815260200190815260200160002060009054906101000a900460ff16905092915050565b7f273dcf2136c7d8ef632bb8ef13dbca69a8f36fa620c7468671b3153d46a211c06113b881612292565b600388886040516113ca9291906132b7565b908152602001604051809103902060009054906101000a900460ff16611425576040517f08c379a000000000000000000000000000000000000000000000000000000000815260040161141c90613ac6565b60405180910390fd5b6000600289896040516114399291906132b7565b90815260200160405180910390209050806009016040518060a001604052803373ffffffffffffffffffffffffffffffffffffffff16815260200142815260200188888080601f016020809104026020016040519081016040528093929190818152602001838380828437600081840152601f19601f820116905080830192505050505050508152602001891515815260200186868080601f016020809104026020016040519081016040528093929190818152602001838380828437600081840152601f19601f82011690508083019250505050505050815250908060018154018082558091505060019003906000526020600020906005020160009091909190915060008201518160000160006101000a81548173ffffffffffffffffffffffffffffffffffffffff021916908373ffffffffffffffffffffffffffffffffffffffff1602179055506020820151816001015560408201518160020190816115a39190613548565b5060608201518160030160006101000a81548160ff02191690831515021790555060808201518160040190816115d99190613548565b50505086156116145760048160040160006101000a81548160ff0219169083600681111561160a5761160961382f565b5b0217905550611642565b60068160040160006101000a81548160ff0219169083600681111561163c5761163b61382f565b5b02179055505b7fe7c60a06074817fab6054e6bff7acbd6342343a284e38192a9fdd517ca376e2a8989338a6040516116779493929190613ae6565b60405180910390a1505050505050505050565b6000801b81565b600385856040516116a39291906132b7565b908152602001604051809103902060009054906101000a900460ff166116fe576040517f08c379a00000000000000000000000000000000000000000000000000000000081526004016116f590613b98565b60405180910390fd5b6000600286866040516117129291906132b7565b9081526020016040518091039020905060008082600801805490501461179257816008016001836008018054905061174a919061373a565b8154811061175b5761175a61376e565b5b906000526020600020906004020160010160009054906101000a900473ffffffffffffffffffffffffffffffffffffffff166117b8565b8160010160009054906101000a900473ffffffffffffffffffffffffffffffffffffffff165b90508073ffffffffffffffffffffffffffffffffffffffff163373ffffffffffffffffffffffffffffffffffffffff1614611828576040517f08c379a000000000000000000000000000000000000000000000000000000000815260040161181f90613c2a565b60405180910390fd5b60006001888860405161183c9291906132b7565b908152602001604051809103902054905060008111156119625780341015611899576040517f08c379a000000000000000000000000000000000000000000000000000000000815260040161189090613cbc565b60405180910390fd5b8173ffffffffffffffffffffffffffffffffffffffff166108fc829081150290604051600060405180830381858888f193505050501580156118df573d6000803e3d6000fd5b508034111561193b573373ffffffffffffffffffffffffffffffffffffffff166108fc823461190e919061373a565b9081150290604051600060405180830381858888f19350505050158015611939573d6000803e3d6000fd5b505b60006001898960405161194f9291906132b7565b9081526020016040518091039020819055505b8260080160405180608001604052803373ffffffffffffffffffffffffffffffffffffffff1681526020018873ffffffffffffffffffffffffffffffffffffffff16815260200142815260200187878080601f016020809104026020016040519081016040528093929190818152602001838380828437600081840152601f19601f82011690508083019250505050505050815250908060018154018082558091505060019003906000526020600020906004020160009091909190915060008201518160000160006101000a81548173ffffffffffffffffffffffffffffffffffffffff021916908373ffffffffffffffffffffffffffffffffffffffff16021790555060208201518160010160006101000a81548173ffffffffffffffffffffffffffffffffffffffff021916908373ffffffffffffffffffffffffffffffffffffffff160217905550604082015181600201556060820151816003019081611acd9190613548565b50505060028360040160006101000a81548160ff02191690836006811115611af857611af761382f565b5b02179055507f1c24a8c4db903669f24ea1b2b8dd08c606fd4d04c8ff25b9b6b43987b239702388883389604051611b329493929190613cdc565b60405180910390a15050505050505050565b6001818051602081018201805184825260208301602085012081835280955050505050506000915090505481565b606060028383604051611b869291906132b7565b9081526020016040518091039020600801805480602002602001604051908101604052809291908181526020016000905b82821015611d3157838290600052602060002090600402016040518060800160405290816000820160009054906101000a900473ffffffffffffffffffffffffffffffffffffffff1673ffffffffffffffffffffffffffffffffffffffff1673ffffffffffffffffffffffffffffffffffffffff1681526020016001820160009054906101000a900473ffffffffffffffffffffffffffffffffffffffff1673ffffffffffffffffffffffffffffffffffffffff1673ffffffffffffffffffffffffffffffffffffffff16815260200160028201548152602001600382018054611ca0906132ff565b80601f0160208091040260200160405190810160405280929190818152602001828054611ccc906132ff565b8015611d195780601f10611cee57610100808354040283529160200191611d19565b820191906000526020600020905b815481529060010190602001808311611cfc57829003601f168201915b50505050508152505081526020019060010190611bb7565b50505050905092915050565b611d4682610a9d565b611d4f81612292565b611d59838361239f565b50505050565b7f7c6181838a71a779e445600d4c6ecbe16bacf2b3c5bda69c29fada66d1b645d1611d8981612292565b60038a8a604051611d9b9291906132b7565b908152602001604051809103902060009054906101000a900460ff1615611df7576040517f08c379a0000000000000000000000000000000000000000000000000000000008152600401611dee90613d8e565b60405180910390fd5b600060028b8b604051611e0b9291906132b7565b908152602001604051809103902090508a8a826000019182611e2e929190613db9565b50338160010160006101000a81548173ffffffffffffffffffffffffffffffffffffffff021916908373ffffffffffffffffffffffffffffffffffffffff1602179055508888826002019182611e85929190613db9565b508686826005019182611e99929190613db9565b508481600601819055508383826007019182611eb6929190613db9565b5042816003018190555060008160040160006101000a81548160ff02191690836006811115611ee857611ee761382f565b5b0217905550600160038c8c604051611f019291906132b7565b908152602001604051809103902060006101000a81548160ff0219169083151502179055507faa2e1f9e65e9df2b17cca112ac2b09c46401f1dba8fc33f495fb371ac508459a8b8b33604051611f5993929190613e89565b60405180910390a15050505050505050505050565b7f273dcf2136c7d8ef632bb8ef13dbca69a8f36fa620c7468671b3153d46a211c081565b7ffbd454f36a7e1a388bd6fc3ab10d434aa4578f811acbbcf33afb1c697486313c81565b7f7c6181838a71a779e445600d4c6ecbe16bacf2b3c5bda69c29fada66d1b645d181565b606060006060600080606060008060028a8a604051611ffa9291906132b7565b90815260200160405180910390209050806000018160010160009054906101000a900473ffffffffffffffffffffffffffffffffffffffff168260020183600301548460040160009054906101000a900460ff1660068111156120605761205f61382f565b5b856005018660060154868054612075906132ff565b80601f01602080910402602001604051908101604052809291908181526020018280546120a1906132ff565b80156120ee5780601f106120c3576101008083540402835291602001916120ee565b820191906000526020600020905b8154815290600101906020018083116120d157829003601f168201915b50505050509650848054612101906132ff565b80601f016020809104026020016040519081016040528092919081815260200182805461212d906132ff565b801561217a5780601f1061214f5761010080835404028352916020019161217a565b820191906000526020600020905b81548152906001019060200180831161215d57829003601f168201915b5050505050945081805461218d906132ff565b80601f01602080910402602001604051908101604052809291908181526020018280546121b9906132ff565b80156122065780601f106121db57610100808354040283529160200191612206565b820191906000526020600020905b8154815290600101906020018083116121e957829003601f168201915b5050505050915097509750975097509750975097505092959891949750929550565b60007f01ffc9a7000000000000000000000000000000000000000000000000000000007bffffffffffffffffffffffffffffffffffffffffffffffffffffffff1916827bffffffffffffffffffffffffffffffffffffffffffffffffffffffff1916149050919050565b6122a38161229e612397565b612491565b50565b60006122b28383611324565b61238c57600160008085815260200190815260200160002060000160008473ffffffffffffffffffffffffffffffffffffffff1673ffffffffffffffffffffffffffffffffffffffff16815260200190815260200160002060006101000a81548160ff021916908315150217905550612329612397565b73ffffffffffffffffffffffffffffffffffffffff168273ffffffffffffffffffffffffffffffffffffffff16847f2f8788117e7eff1d82e926ec794901d17c78024a50270940304540a733656f0d60405160405180910390a460019050612391565b600090505b92915050565b600033905090565b60006123ab8383611324565b1561248657600080600085815260200190815260200160002060000160008473ffffffffffffffffffffffffffffffffffffffff1673ffffffffffffffffffffffffffffffffffffffff16815260200190815260200160002060006101000a81548160ff021916908315150217905550612423612397565b73ffffffffffffffffffffffffffffffffffffffff168273ffffffffffffffffffffffffffffffffffffffff16847ff6391f5c32d9c69d2a47ea670b442974b53935d1edc7fd64eb21e047a839171b60405160405180910390a46001905061248b565b600090505b92915050565b61249b8282611324565b6124de5780826040517fe2517d3f0000000000000000000000000000000000000000000000000000000081526004016124d5929190613ebb565b60405180910390fd5b5050565b6000604051905090565b600080fd5b600080fd5b60007fffffffff0000000000000000000000000000000000000000000000000000000082169050919050565b61252b816124f6565b811461253657600080fd5b50565b60008135905061254881612522565b92915050565b600060208284031215612564576125636124ec565b5b600061257284828501612539565b91505092915050565b60008115159050919050565b6125908161257b565b82525050565b60006020820190506125ab6000830184612587565b92915050565b600080fd5b600080fd5b600080fd5b60008083601f8401126125d6576125d56125b1565b5b8235905067ffffffffffffffff8111156125f3576125f26125b6565b5b60208301915083600182028301111561260f5761260e6125bb565b5b9250929050565b6000806020838503121561262d5761262c6124ec565b5b600083013567ffffffffffffffff81111561264b5761264a6124f1565b5b612657858286016125c0565b92509250509250929050565b600081519050919050565b600082825260208201905092915050565b6000819050602082019050919050565b600073ffffffffffffffffffffffffffffffffffffffff82169050919050565b60006126ba8261268f565b9050919050565b6126ca816126af565b82525050565b6000819050919050565b6126e3816126d0565b82525050565b600081519050919050565b600082825260208201905092915050565b60005b83811015612723578082015181840152602081019050612708565b60008484015250505050565b6000601f19601f8301169050919050565b600061274b826126e9565b61275581856126f4565b9350612765818560208601612705565b61276e8161272f565b840191505092915050565b6127828161257b565b82525050565b600060a0830160008301516127a060008601826126c1565b5060208301516127b360208601826126da565b50604083015184820360408601526127cb8282612740565b91505060608301516127e06060860182612779565b50608083015184820360808601526127f88282612740565b9150508091505092915050565b60006128118383612788565b905092915050565b6000602082019050919050565b600061283182612663565b61283b818561266e565b93508360208202850161284d8561267f565b8060005b85811015612889578484038952815161286a8582612805565b945061287583612819565b925060208a01995050600181019050612851565b50829750879550505050505092915050565b600060208201905081810360008301526128b58184612826565b905092915050565b6128c6816126d0565b81146128d157600080fd5b50565b6000813590506128e3816128bd565b92915050565b600080600080600060608688031215612905576129046124ec565b5b600086013567ffffffffffffffff811115612923576129226124f1565b5b61292f888289016125c0565b95509550506020612942888289016128d4565b935050604086013567ffffffffffffffff811115612963576129626124f1565b5b61296f888289016125c0565b92509250509295509295909350565b6000819050919050565b6129918161297e565b82525050565b60006020820190506129ac6000830184612988565b92915050565b6129bb8161297e565b81146129c657600080fd5b50565b6000813590506129d8816129b2565b92915050565b6000602082840312156129f4576129f36124ec565b5b6000612a02848285016129c9565b91505092915050565b600080fd5b7f4e487b7100000000000000000000000000000000000000000000000000000000600052604160045260246000fd5b612a488261272f565b810181811067ffffffffffffffff82111715612a6757612a66612a10565b5b80604052505050565b6000612a7a6124e2565b9050612a868282612a3f565b919050565b600067ffffffffffffffff821115612aa657612aa5612a10565b5b612aaf8261272f565b9050602081019050919050565b82818337600083830152505050565b6000612ade612ad984612a8b565b612a70565b905082815260208101848484011115612afa57612af9612a0b565b5b612b05848285612abc565b509392505050565b600082601f830112612b2257612b216125b1565b5b8135612b32848260208601612acb565b91505092915050565b600060208284031215612b5157612b506124ec565b5b600082013567ffffffffffffffff811115612b6f57612b6e6124f1565b5b612b7b84828501612b0d565b91505092915050565b612b8d816126af565b8114612b9857600080fd5b50565b600081359050612baa81612b84565b92915050565b60008060408385031215612bc757612bc66124ec565b5b6000612bd5858286016129c9565b9250506020612be685828601612b9b565b9150509250929050565b600081519050919050565b600082825260208201905092915050565b6000819050602082019050919050565b6000608083016000830151612c3460008601826126c1565b506020830151612c4760208601826126da565b506040830151612c5a60408601826126da565b5060608301518482036060860152612c728282612740565b9150508091505092915050565b6000612c8b8383612c1c565b905092915050565b6000602082019050919050565b6000612cab82612bf0565b612cb58185612bfb565b935083602082028501612cc785612c0c565b8060005b85811015612d035784840389528151612ce48582612c7f565b9450612cef83612c93565b925060208a01995050600181019050612ccb565b50829750879550505050505092915050565b60006020820190508181036000830152612d2f8184612ca0565b905092915050565b600080600060408486031215612d5057612d4f6124ec565b5b600084013567ffffffffffffffff811115612d6e57612d6d6124f1565b5b612d7a868287016125c0565b93509350506020612d8d868287016128d4565b9150509250925092565b612da08161257b565b8114612dab57600080fd5b50565b600081359050612dbd81612d97565b92915050565b60008060008060008060006080888a031215612de257612de16124ec565b5b600088013567ffffffffffffffff811115612e0057612dff6124f1565b5b612e0c8a828b016125c0565b97509750506020612e1f8a828b01612dae565b955050604088013567ffffffffffffffff811115612e4057612e3f6124f1565b5b612e4c8a828b016125c0565b9450945050606088013567ffffffffffffffff811115612e6f57612e6e6124f1565b5b612e7b8a828b016125c0565b925092505092959891949750929550565b600080600080600060608688031215612ea857612ea76124ec565b5b600086013567ffffffffffffffff811115612ec657612ec56124f1565b5b612ed2888289016125c0565b95509550506020612ee588828901612b9b565b935050604086013567ffffffffffffffff811115612f0657612f056124f1565b5b612f12888289016125c0565b92509250509295509295909350565b612f2a816126d0565b82525050565b6000602082019050612f456000830184612f21565b92915050565b600081519050919050565b600082825260208201905092915050565b6000819050602082019050919050565b6000608083016000830151612f8f60008601826126c1565b506020830151612fa260208601826126c1565b506040830151612fb560408601826126da565b5060608301518482036060860152612fcd8282612740565b9150508091505092915050565b6000612fe68383612f77565b905092915050565b6000602082019050919050565b600061300682612f4b565b6130108185612f56565b93508360208202850161302285612f67565b8060005b8581101561305e578484038952815161303f8582612fda565b945061304a83612fee565b925060208a01995050600181019050613026565b50829750879550505050505092915050565b6000602082019050818103600083015261308a8184612ffb565b905092915050565b600080600080600080600080600060a08a8c0312156130b4576130b36124ec565b5b60008a013567ffffffffffffffff8111156130d2576130d16124f1565b5b6130de8c828d016125c0565b995099505060208a013567ffffffffffffffff811115613101576131006124f1565b5b61310d8c828d016125c0565b975097505060408a013567ffffffffffffffff8111156131305761312f6124f1565b5b61313c8c828d016125c0565b9550955050606061314f8c828d016128d4565b93505060808a013567ffffffffffffffff8111156131705761316f6124f1565b5b61317c8c828d016125c0565b92509250509295985092959850929598565b600082825260208201905092915050565b60006131aa826126e9565b6131b4818561318e565b93506131c4818560208601612705565b6131cd8161272f565b840191505092915050565b6131e1816126af565b82525050565b600060ff82169050919050565b6131fd816131e7565b82525050565b600060e082019050818103600083015261321d818a61319f565b905061322c60208301896131d8565b818103604083015261323e818861319f565b905061324d6060830187612f21565b61325a60808301866131f4565b81810360a083015261326c818561319f565b905061327b60c0830184612f21565b98975050505050505050565b600081905092915050565b600061329e8385613287565b93506132ab838584612abc565b82840190509392505050565b60006132c4828486613292565b91508190509392505050565b7f4e487b7100000000000000000000000000000000000000000000000000000000600052602260045260246000fd5b6000600282049050600182168061331757607f821691505b60208210810361332a576133296132d0565b5b50919050565b7f706f737450726963653a20426174636820646f6573206e6f7420657869737400600082015250565b6000613366601f8361318e565b915061337182613330565b602082019050919050565b6000602082019050818103600083015261339581613359565b9050919050565b60008190508160005260206000209050919050565b60006020601f8301049050919050565b600082821b905092915050565b6000600883026133fe7fffffffffffffffffffffffffffffffffffffffffffffffffffffffffffffffff826133c1565b61340886836133c1565b95508019841693508086168417925050509392505050565b6000819050919050565b600061344561344061343b846126d0565b613420565b6126d0565b9050919050565b6000819050919050565b61345f8361342a565b61347361346b8261344c565b8484546133ce565b825550505050565b600090565b61348861347b565b613493818484613456565b505050565b5b818110156134b7576134ac600082613480565b600181019050613499565b5050565b601f8211156134fc576134cd8161339c565b6134d6846133b1565b810160208510156134e5578190505b6134f96134f1856133b1565b830182613498565b50505b505050565b600082821c905092915050565b600061351f60001984600802613501565b1980831691505092915050565b6000613538838361350e565b9150826002028217905092915050565b613551826126e9565b67ffffffffffffffff81111561356a57613569612a10565b5b61357482546132ff565b61357f8282856134bb565b600060209050601f8311600181146135b257600084156135a0578287015190505b6135aa858261352c565b865550613612565b601f1984166135c08661339c565b60005b828110156135e8578489015182556001820191506020850194506020810190506135c3565b868310156136055784890151613601601f89168261350e565b8355505b6001600288020188555050505b505050505050565b6000613626838561318e565b9350613633838584612abc565b61363c8361272f565b840190509392505050565b6000604082019050818103600083015261366281858761361a565b90506136716020830184612f21565b949350505050565b7f7265636f72644172726976616c3a20426174636820646f6573206e6f7420657860008201527f6973740000000000000000000000000000000000000000000000000000000000602082015250565b60006136d560238361318e565b91506136e082613679565b604082019050919050565b60006020820190508181036000830152613704816136c8565b9050919050565b7f4e487b7100000000000000000000000000000000000000000000000000000000600052601160045260246000fd5b6000613745826126d0565b9150613750836126d0565b92508282039050818111156137685761376761370b565b5b92915050565b7f4e487b7100000000000000000000000000000000000000000000000000000000600052603260045260246000fd5b7f7265636f72644172726976616c3a2043616c6c6572206973206e6f742074686560008201527f2063757272656e74206f776e6572000000000000000000000000000000000000602082015250565b60006137f9602e8361318e565b91506138048261379d565b604082019050919050565b60006020820190508181036000830152613828816137ec565b9050919050565b7f4e487b7100000000000000000000000000000000000000000000000000000000600052602160045260246000fd5b7f6163636570745072696365416e644275793a20426174636820646f6573206e6f60008201527f7420657869737400000000000000000000000000000000000000000000000000602082015250565b60006138ba60278361318e565b91506138c58261385e565b604082019050919050565b600060208201905081810360008301526138e9816138ad565b9050919050565b7f6163636570745072696365416e644275793a20496e76616c696420707269636560008201527f20696e6465780000000000000000000000000000000000000000000000000000602082015250565b600061394c60268361318e565b9150613957826138f0565b604082019050919050565b6000602082019050818103600083015261397b8161393f565b9050919050565b7f6163636570745072696365416e644275793a204d7573742073656e642065786160008201527f637420707269636520616d6f756e740000000000000000000000000000000000602082015250565b60006139de602f8361318e565b91506139e982613982565b604082019050919050565b60006020820190508181036000830152613a0d816139d1565b9050919050565b60006060820190508181036000830152613a2f81868861361a565b9050613a3e60208301856131d8565b613a4b6040830184612f21565b95945050505050565b7f7265636f72645175616c6974794576656e743a20426174636820646f6573206e60008201527f6f74206578697374000000000000000000000000000000000000000000000000602082015250565b6000613ab060288361318e565b9150613abb82613a54565b604082019050919050565b60006020820190508181036000830152613adf81613aa3565b9050919050565b60006060820190508181036000830152613b0181868861361a565b9050613b1060208301856131d8565b613b1d6040830184612587565b95945050505050565b7f7265636f72645472616e736665723a20426174636820646f6573206e6f74206560008201527f7869737400000000000000000000000000000000000000000000000000000000602082015250565b6000613b8260248361318e565b9150613b8d82613b26565b604082019050919050565b60006020820190508181036000830152613bb181613b75565b9050919050565b7f7265636f72645472616e736665723a2043616c6c6572206973206e6f7420746860008201527f652063757272656e74206f776e65720000000000000000000000000000000000602082015250565b6000613c14602f8361318e565b9150613c1f82613bb8565b604082019050919050565b60006020820190508181036000830152613c4381613c07565b9050919050565b7f7265636f72645472616e736665723a20496e73756666696369656e742070617960008201527f6d656e742073656e740000000000000000000000000000000000000000000000602082015250565b6000613ca660298361318e565b9150613cb182613c4a565b604082019050919050565b60006020820190508181036000830152613cd581613c99565b9050919050565b60006060820190508181036000830152613cf781868861361a565b9050613d0660208301856131d8565b613d1360408301846131d8565b95945050505050565b7f63726561746542617463683a20426174636820616c726561647920657869737460008201527f7300000000000000000000000000000000000000000000000000000000000000602082015250565b6000613d7860218361318e565b9150613d8382613d1c565b604082019050919050565b60006020820190508181036000830152613da781613d6b565b9050919050565b600082905092915050565b613dc38383613dae565b67ffffffffffffffff811115613ddc57613ddb612a10565b5b613de682546132ff565b613df18282856134bb565b6000601f831160018114613e205760008415613e0e578287013590505b613e18858261352c565b865550613e80565b601f198416613e2e8661339c565b60005b82811015613e5657848901358255600182019150602085019450602081019050613e31565b86831015613e735784890135613e6f601f89168261350e565b8355505b6001600288020188555050505b50505050505050565b60006040820190508181036000830152613ea481858761361a565b9050613eb360208301846131d8565b949350505050565b6000604082019050613ed060008301856131d8565b613edd6020830184612988565b939250505056fea264697066735822122041bcdbab89653aa7213924741035fc08d7c29f45c71d824dbd642a5cc9d8ae8064736f6c63430008140033",
  "linkReferences": {},
  "deployedLinkReferences": {}
}